:020000040800F2
:10000000604D002069020008A94C000875480008EE
:10001000894C0008C5090008815D00080000000047
:10002000000000000000000000000000914D0008EA
:10003000250C000800000000214D0008E14D0008DB
:10004000830200088302000883020008830200087C
:10005000830200088302000883020008830200086C
:10006000830200088302000883020008830200085C
:10007000830200088302000883020008830200084C
:10008000830200088302000883020008830200083C
:10009000C9090008D9090008830200088302000882
:1000A00083020008054F000883020008830200084D
:1000B000830200088302000883020008830200080C
:1000C00083020008830200088302000883020008FC
:1000D00083020008615D00088302000883020008B3
:1000E00083020008830200088302000883020008DC
:1000F00083020008830200088302000883020008CC
:1001000083020008830200088302000883020008BB
:1001100083020008830200088302000883020008AB
:1001200083020008550A0008650A000883020008D7
:10013000830200088302000883020008830200088B
:10014000E9090008F9090008830200088302000891
:1001500083020008750A000883020008715D000828
:10016000830200088302000883020008830200085B
:1001700083020008830200088302000800000000D8
:10018000830200088302000883020008830200083B
:10019000830200088302000883020008830200082B
:1001A00000000000000000008302000800F002F8D8
:1001B00000F049F80AA090E8000C82448344AAF1B8
:1001C0000107DA4501D100F03EF8AFF2090EBAE8B6
:1001D0000F0013F0010F18BFFB1A43F0010318477B
:1001E000B0D70000D0D70000103A24BF78C878C13B
:1001F000FAD8520724BF30C830C144BF04680C602D
:10020000704700000023002400250026103A28BF74
:1002100078C1FBD8520728BF30C148BF0B60704778
:100220001FB50DF00CFA9DE8030000F029FA00F06C
:1002300019F88DE80F0000F01BF91FBD10B5002064
:1002400000F054FA10BD00F023FB1146FFF7E8FF61
:100250000BF040F900F05DFB03B4FFF7EFFF03BCC8
:1002600000F018F900F080BA0948804709480047B3
:10027000FEE7FEE7FEE7FEE7FEE7FEE7FEE7FEE756
:10028000FEE7FEE704480549054A064B70470000B3
:10029000F14E0008AD01000860470020604D0020CD
:1002A000604900206049002053EA020C00F0698098
:1002B0002DE9F04B4FF00006002B1FBFB3FA83F57A
:1002C00003FA05F424FA05F65E4012BF1643B2FAAB
:1002D00082F502FA05F4C5F120051EBF22FA05FCDD
:1002E00044EA0C04203556EA044C4FEA144418BF83
:1002F000641C4FF000084FF00009904271EB030CB2
:1003000039D3002919BFB1FA81F701FA07F6B0FA1B
:1003100080F700FA07F6C7F120071EBF20FA07FC96
:1003200046EA0C062037B6FBF4FCA7EB0507103FA6
:1003300007F01F0BCBF120062CFA06F60CFA0BFB8C
:1003400044BFB3460026202FA4BF5E464FF0000BEB
:100350005BEA060C08BF4FF0010B19EB0B0948EBE9
:100360000608ABFB027C06FB02CC0BFB03CCC01BDC
:1003700071EB0C01C1E70B46024641464846BDE819
:10038000F08B13B5084318BF4FF0FF300146AFF3B1
:100390000080BDE81C40704710B5002000F047F910
:1003A000FFF74CFFBDE81040012000F073B80B468A
:1003B0000146184600F024B910B5203AC0F00B8071
:1003C000B1E81850A0E81850B1E81850A0E818504B
:1003D000203ABFF4F5AF5FEA027C24BFB1E81850C1
:1003E000A0E8185044BF18C918C0BDE810405FEA23
:1003F000827C24BF51F8043B40F8043B08BF70479F
:10040000D20728BF31F8023B48BF11F8012B28BFA3
:1004100020F8023B48BF00F8012B70474FF0000264
:1004200000B5134694469646203922BFA0E80C50EA
:10043000A0E80C50B1F12001BFF4F7AF090728BFC5
:10044000A0E80C5048BF0CC05DF804EB890028BF41
:1004500040F8042B08BF704748BF20F8022B11F06A
:10046000804F18BF00F8012B7047704770477047E6
:1004700070B5064C7C44064D7D4404E0204601687E
:1004800008448047241DAC42F8D170BD38D5000027
:1004900040D5000001491820ABBEFEE7260002004F
:1004A00070B5064600F0CCF8056806F10B0020F0A8
:1004B0000704B4429CBF002070BD2B466A68BAB1E5
:1004C0001068A04210D304F1080188423CBF506874
:1004D000586007D35168101941601168091B016009
:1004E00058601460101D70BD13465268002AE7D191
:1004F0002146284600F0B0F80028DED170BD70B566
:100500000446051F00F09CF80068002C14BF4468E6
:1005100070BD002C18BFAC423CBF20466468F8D3C5
:1005200001680A18AA4218BF456003D12A68054627
:100530001144016028684119A1421CBF6C6070BD64
:100540006168696021680844286070BD2DE9F04742
:1005500091460C46804600F073F80768604234EA22
:10056000000001D1042C02D20520BDE8F087601EF6
:1005700040F0070609F10B0020F007054D459CBF30
:100580000020BDE8F0873B467A6882B31468101DEE
:10059000404206EA000C644525D9A4EB0C008542D4
:1005A00021D8BCF1000F0BD0104601686244A1EBCA
:1005B0000C01116041685160C0F800C058600346EA
:1005C000116805F10800814205D35019491B0160EB
:1005D00015605860034652F8040F58600020C8F8B0
:1005E0000020BDE8F08713465268002ACED1294684
:1005F000384600F031F80028C5D10620BDE8F08764
:100600002DE9F041074615460E461020FFF748FF3A
:1006100004000AD06760C4E9026500F015F80168BB
:10062000216004600020BDE8F0810120FBE710B5E7
:1006300000F082F8BDE8104000F079B87047000083
:1006400000487047280000200048704758000020EC
:10065000704770477047704738B504460A46002017
:100660006946AFF30080002808BF38BD02460099F4
:10067000204600F034F9012038BD012000F06BB9AC
:10068000F8B5AFF30080054600200C46102000BFEF
:100690000646A819A0420DD9324669460020AFF39C
:1006A0000080070008BF00F056F90098A04218BF6C
:1006B0000546C419FFF7C4FF05600746F01D20F08A
:1006C00007004619284600F00AF8B44208BFF8BDF2
:1006D000A21B31463868BDE8F84000F000B900219F
:1006E0000160C0E901107047102070472DE9F0410A
:1006F0000646FFF7A9FF8046454613E016B1E068BD
:10070000B0420ED120682860D4E90101D8F8007009
:1007100088472046FFF7F3FED8F80000B842EBD137
:1007200000E025462C68002CE8D1BDE8F0810028C7
:1007300001D0FFF7AFBE704710B5002102A000F056
:10074000F1F8012010BD0000534947414252543A8C
:100750002041626E6F726D616C207465726D696E9E
:100760006174696F6E0000002DE9FE4F00274FF4A1
:100770008074BA4620468DF80070FFF791FE5FEA5C
:10078000000801D100F0E7F82146404600F070F87B
:10079000060009D04FF0010B4546C14616F8014B43
:1007A0008FB15C2C16D01CE008F108004146C8F857
:1007B00000000020C8F80400D8F800402070012094
:1007C00003B0BDE8F08F222C01D0272C0FD1274693
:1007D000BA462CE03078222807D05C2805D027289C
:1007E00003D0BC4203D1002721E0761C04464CB163
:1007F0002FB9202C06D0A4F10900042802D905F84D
:10080000014BCBE74D4502D1BAF1000F0FD0524654
:100810004946002005F8010B6846AFF300809DF8BB
:10082000000068B14D464FF0000A0BF1010B002C9F
:10083000B4D14FEA8B00FFF733FE040002D004E08E
:10084000A946F0E7002000F086F800264046C4F8EC
:10085000008005E010F8011B11B9761C44F8260051
:10086000A842F7D32146002044F826003046A7E7E7
:100870001CB50446CDE9000169461520ABBE08B1A0
:1008800000201CBD20461CBD0048704720000020F1
:100890007546FFF7F9FFAE4605006946534620F05E
:1008A0000700854618B020B5FFF7ECFCBDE82040F6
:1008B0004FF000064FF000074FF000084FF0000B1C
:1008C000AC46ACE8C009ACE8C009ACE8C009ACE88B
:1008D000C00921F007018D467047704770470346F5
:1008E00040688C46002818BF88423CBF03464068D9
:1008F000F8D318681844884207D00CF1030020F0A0
:100900000700001D411A521A0146081D0A60FFF730
:10091000F6BD10B50446AFF300802046BDE8104098
:10092000FFF79ABC70B505460C460A2000E06D1C26
:1009300000F018F835B128780028F8D102E0641CDE
:1009400000F010F814B120780028F8D1BDE870400C
:100950000A2000F007B810B500F00CF8BDE8104010
:10096000FFF7E5BE08B569468DF800000320ABBE71
:1009700008BD000010B5012805D0002103A0FFF735
:10098000D1FF012010BD09A1F8E7000053494752EB
:10099000544D454D3A204F7574206F66206865614F
:1009A00070206D656D6F7279000000003A20486517
:1009B0006170206D656D6F727920636F72727570F2
:1009C00074656400FFE7FEE780B540F25C40C2F268
:1009D000000000F051FC80BD80B540F25C40C2F2E6
:1009E000000000F049FC80BD80B540F28440C2F2B6
:1009F000000000F041FC80BD80B540F28440C2F2AE
:100A0000000000F039FC80BD80B586B0059005F08F
:100A10005BFF05F0F5FF05F01BFBFFE740F28800E8
:100A2000C2F20000049008F031FC049903900846DB
:100A300008F032FC029005F019FA0399019008467B
:100A40000299019A05F08EFB01200AF079FD0090D1
:100A5000E4E7000080B540F20C50C2F2000001F063
:100A60002BF980BD80B540F2AC40C2F2000001F02D
:100A700023F980BD80B540F26C50C2F2000001F055
:100A80001BF980BD82B001900198007810384AF6B9
:100A9000AB21CAF6AA21A0FB010109090091009926
:100AA0004DF2FC62C0F60002515C019AD1650099DA
:100AB000042907D3FFE701980168042262F30901C2
:100AC000816506E00198016840F2FF32914381653B
:100AD000FFE70198806D02B07047000086B0059076
:100AE00000208DF813000598806A039005988069AE
:100AF000002823D1FFE70398032802901CD802990D
:100B0000DFE801F0020E0219059890F82F00C007E7
:100B1000002804D0FFE701208DF81300FFE70CE068
:100B20000598C06AB0F1C07F04D1FFE701208DF8BD
:100B30001300FFE701E000E0FFE747E00598806968
:100B4000B0F5005F26D1FFE70398032801901FD876
:100B50000199DFE801F00206021201208DF813006E
:100B600017E0059890F82F00C007002804D0FFE791
:100B700001208DF81300FFE70BE00598C06AB0F183
:100B8000C07F04D1FFE701208DF81300FFE700E0EC
:100B9000FFE71AE003980328009004D3FFE70098CA
:100BA000032804D00FE001208DF813000CE0059815
:100BB00090F82F00C007002804D0FFE701208DF82F
:100BC0001300FFE700E0FFE7FFE7FFE79DF81300F2
:100BD00006B0704784B0039002910192009303988D
:100BE0000068016821F48021016000980399096878
:100BF000486003988068402809D1FFE7019803996D
:100C000009688860029803990968C86008E002983A
:100C1000039909688860019803990968C860FFE72B
:100C200004B070477047000072B6FFE7FEE70000AF
:100C300084B002900191029890F820008DF8030092
:100C40009DF80300012805D0FFE79DF80300022866
:100C50000AD1FFE70198029909684A69104348617F
:100C600000208DF80F0008E00298416A41F48021CD
:100C7000416201208DF80F00FFE79DF80F0004B0DE
:100C80007047000088B0069005910492039306987F
:100C900090F820008DF807000698006880680090A2
:100CA00005988068002801D1FFE700E0FFE79DF884
:100CB0000700012806D0FFE79DF80700022840F052
:100CC0008280FFE79DF80300400700280CD4FFE76F
:100CD0009DF803000007002806D4FFE79DF80300F5
:100CE000C006002866D5FFE70098C0F301600290B7
:100CF0000298012101FA00F00399086005988068C4
:100D000000280DD1FFE705980168C06840EA41500E
:100D100006990968029A01EB0211C1F880010EE000
:100D2000059841688268C06842EAC1010843069993
:100D30000968029A01EB0211C1F88001FFE70598EA
:100D4000006906990968029A01EB0211C1F8840151
:100D50000598007D01280CD1FFE7069800680299EC
:100D600000EB0110D0F8841141F48071C0F88411B7
:100D7000FFE70498406806990968029A01EB02119E
:100D8000C1F88C010498006806990968029A01EB81
:100D90000211C1F8880106980068029900EB011061
:100DA000D0F8801141F00101C0F8801100208DF8C9
:100DB0001F0011E00698416A41F4001141620120D0
:100DC0008DF81F0008E00698416A41F480214162D5
:100DD00001208DF81F00FFE79DF81F0008B0704745
:100DE00086B004900391049890F820008DF80300D9
:100DF0009DF80300012806D0FFE79DF803000228B4
:100E000040F0B880FFE746F20040C4F200000190D5
:100E10000198D0F8001241F00101C0F800120198C9
:100E2000D0F8001221F47C51C0F800120398406AF7
:100E30000199D1F8002242EA0020C1F8000203988B
:100E4000406900F01F00012101FA00F002900298B1
:100E50000199D1F81C2222EA0000C1F81C02039873
:100E6000C06900281FD1FFE702980199D1F80C2230
:100E700022EA0000C1F80C0203988188C268406928
:100E800041EA0241019A02EBC000C0F84012039807
:100E900001888268406941EA0241019A02EBC00080
:100EA000C0F84412FFE70398C06901281ED1FFE78C
:100EB00002980199D1F80C221043C1F80C02039852
:100EC00081880268406941EA0241019A02EBC00050
:100ED000C0F84012039881898268406941EA024162
:100EE000019A02EBC000C0F84412FFE70398806942
:100EF000002809D1FFE702980199D1F8042222EADB
:100F00000000C1F8040207E002980199D1F8042218
:100F10001043C1F80402FFE703980069002809D1D3
:100F2000FFE702980199D1F8142222EA0000C1F8E3
:100F3000140207E002980199D1F814221043C1F875
:100F40001402FFE70398006A012808D1FFE702981E
:100F50000199D1F81C221043C1F81C02FFE7019847
:100F6000D0F8001221F00101C0F8001200208DF825
:100F7000170008E00498416A41F480214162012091
:100F80008DF81700FFE79DF8170006B070470000C6
:100F900081B0009001B0704784B0039002910020AE
:100FA0000190039890F820008DF803009DF803004D
:100FB000012805D0FFE79DF80300022813D1FFE7C1
:100FC0000298002807D1FFE703980068C06800F086
:100FD0000300019006E003980068006900F0030038
:100FE0000190FFE7FFE7019804B0704786B00490D6
:100FF000039102920193049890F820008DF8030069
:101000009DF80300012806D0FFE79DF803000228A1
:1010100040F0ED80FFE70398002811D1FFE7049826
:101020000068C0688007002809D1FFE70498416A7A
:1010300041F40011416201208DF81700E0E010E05A
:101040000498006800698007002809D1FFE7049828
:10105000416A41F40011416201208DF81700CFE090
:10106000FFE704980068039900EB0110D0F8B00185
:1010700000F00400029988600298806800280BD173
:10108000FFE704980068039900EB0110D0F8B00165
:10109000400D029908600AE004980068039900EB8B
:1010A0000110D0F8B001C00802994860FFE7049829
:1010B0000068039900EB0110D0F8B00100F00200C5
:1010C0000299C86004980068039900EB0110D0F8F9
:1010D000B40100F00F00082804D3FFE702980821AC
:1010E00001610BE004980068039900EB0110D0F84F
:1010F000B40100F00F0002990861FFE7049800684E
:10110000039900EB0110D0F8B40180B2000A0299F3
:10111000886104980068039900EB0110D0F8B401CD
:10112000000C0299486104980068039900EB0110D3
:10113000D0F8B8010199087004980068039900EB91
:101140000110D0F8B801000A0199487004980068AD
:10115000039900EB0110D0F8B801000C01998870D8
:1011600004980068039900EB0110D0F8B801000E54
:101170000199C87004980068039900EB0110D0F839
:10118000BC010199087104980068039900EB0110F3
:10119000D0F8BC01000A01994871049800680399CD
:1011A00000EB0110D0F8BC01000C01998871049883
:1011B0000068039900EB0110D0F8BC01000E019902
:1011C000C8710398002807D1FFE704980068C16838
:1011D00041F02001C16006E004980068016941F017
:1011E00020010161FFE700208DF8170008E0049856
:1011F000416A41F48021416201208DF81700FFE728
:101200009DF8170006B0704783B00290002001904F
:10121000029890F820008DF803009DF80300012843
:1012200005D0FFE79DF80300022822D1FFE70298CE
:10123000006880684001002804D5FFE7019801306C
:101240000190FFE70298006880680001002804D53B
:10125000FFE7019801300190FFE70298006880687D
:10126000C000002804D5FFE7019801300190FFE796
:10127000FFE7019803B0704780B58AB0099000205D
:1012800008900998006840690790099800684068CC
:101290000690099800688068059009980068C06801
:1012A00004900998006800690390099800688069B3
:1012B00002909DF81C00C007002800F09780FFE70F
:1012C0009DF81400C00700282BD0FFE7099800689C
:1012D000012181609DF814008007002804D5FFE7F4
:1012E000099800F035FC1BE09DF814004007002829
:1012F00005D5FFE7089840F4006008900FE09DF8DE
:1013000014000007002805D5FFE7089840F4805036
:10131000089003E0099800F017FCFFE7FFE7FFE7FC
:10132000FFE79DF81500C00700282CD0FFE70998BB
:1013300000684FF4807181609DF8150080070028D7
:1013400004D5FFE7099800F00BFC1BE09DF81500A1
:101350004007002805D5FFE7089840F400500890A2
:101360000FE09DF815000007002805D5FFE7089855
:1013700040F48040089003E0099800F0EDFBFFE79F
:10138000FFE7FFE7FFE79DF81600C00700282CD015
:10139000FFE7099800684FF4803181609DF81600DE
:1013A0008007002804D5FFE7099800F0E1FB1BE067
:1013B0009DF816004007002805D5FFE7089840F47F
:1013C000004008900FE09DF816000007002805D5A2
:1013D000FFE7089840F48030089003E0099800F097
:1013E000C3FBFFE7FFE7FFE7FFE7FFE79DF81C0010
:1013F0000007002810D5FFE79DF81000C006002860
:1014000009D5FFE7089840F4007008900998006833
:101410001021C160FFE7FFE79DF81C00400700288E
:101420000FD5FFE79DF810000007002808D5FFE75B
:10143000099800680821C160099800F0EBFAFFE7FD
:10144000FFE79DF81C00800700280CD5FFE70998EE
:101450000068C0688007002804D0FFE7099800F002
:10146000DDFAFFE7FFE79DF81C004006002810D5D5
:10147000FFE79DF80C00C006002809D5FFE7089893
:1014800040F4806008900998006810210161FFE72E
:10149000FFE79DF81C00800600280FD5FFE79DF8A8
:1014A0000C000007002808D5FFE70998006808210C
:1014B0000161099800F0D6FAFFE7FFE79DF81C00EC
:1014C000C00600280CD5FFE709980068006980076E
:1014D000002804D0FFE7099800F0C8FAFFE7FFE70B
:1014E0009DF81E00800700280FD5FFE79DF8180023
:1014F000C006002808D5FFE7099800681021416060
:10150000099800F0D7FAFFE7FFE79DF81E00C00733
:1015100000280FD0FFE79DF818000007002808D525
:10152000FFE70998006808214160099800F024FB52
:10153000FFE7FFE79DF81D000006002840F18F80BF
:10154000FFE79DF818004007002840F18380FFE77F
:101550009DF81D00C00700280BD0FFE79DF808008C
:10156000C007002805D0FFE7089840F00100089068
:10157000FFE79DF81D00800700280BD5FFE79DF8C9
:1015800008008007002805D5FFE7089840F0020012
:101590000890FFE79DF81D00400700280BD5FFE7E6
:1015A0009DF808004007002805D5FFE7089840F09F
:1015B00004000890FFE79DF81D000007002848D5AB
:1015C000FFE79DF8080010F0700F42D0FFE7029887
:1015D00000F0700001461028019114D0FFE7019837
:1015E000202815D0FFE70198302816D0FFE7019892
:1015F000402817D0FFE70198502818D0FFE701983E
:10160000602819D01DE0089840F00800089019E003
:10161000089840F01000089014E0089840F020006E
:1016200008900FE0089840F0400008900AE0089801
:1016300040F08000089005E0089840F48070089021
:1016400000E0FFE709980068816921F0700181617D
:10165000FFE7FFE70998006804214160FFE7089869
:10166000002809D0FFE7089809994A6A10434862A0
:101670000998FFF78DFCFFE70AB080BD80B584B004
:1016800002900298002804D1FFE701208DF80F0096
:10169000E2E0029890F82000002804D1FFE70298C9
:1016A00000F0DEF8FFE702980068016841F00101F0
:1016B000016000F0C1FF0190FFE7029800684068F8
:1016C000C007002815D1FFE700F0B6FF0199401AC6
:1016D0000B280DD3FFE70298416A41F400314162C3
:1016E0000298052180F8201001208DF80F00B3E04A
:1016F000E3E702980068016821F00201016000F050
:101700009BFF0190FFE7029800684068800700286F
:1017100015D5FFE700F090FF0199401A0B280DD373
:10172000FFE70298416A41F40031416202980521C5
:1017300080F8201001208DF80F008DE0E3E702987B
:10174000007E012807D1FFE702980068016841F098
:101750008001016006E002980068016821F08001C4
:101760000160FFE70298407E012807D1FFE7029859
:101770000068016841F04001016006E002980068DD
:10178000016821F040010160FFE70298807E012896
:1017900007D1FFE702980068016841F0200101606D
:1017A00006E002980068016821F020010160FFE76F
:1017B0000298C07E012807D1FFE7029800680168FF
:1017C00021F01001016006E002980068016841F014
:1017D00010010160FFE70298007F012807D1FFE7B1
:1017E00002980068016841F00801016006E0029873
:1017F0000068016821F008010160FFE70298407F5E
:10180000012807D1FFE702980068016841F0040150
:10181000016006E002980068016821F0040101609F
:10182000FFE70298016842688368D0F80CC043EA79
:101830000C03D0F810C043EA0C0340691843013A86
:101840001043C8610298002141620298012280F889
:1018500020208DF80F10FFE79DF80F0004B080BD29
:1018600080B594B0139000201290119010900F90BA
:101870000E901398006846F20041C4F200018842BD
:1018800054D1FFE740F2D000C2F2000001680131FC
:1018900001600068012812D1FFE7FFE700200D90EA
:1018A00043F64000C4F20200016841F0007101609B
:1018B000006800F000700D900D98FFE7FFE7FFE76C
:1018C00000200C9043F63000C4F20200016841F0A1
:1018D00008010160006800F008000C900C98FFE718
:1018E00003200E9002210F910021109111900920E8
:1018F000129040F60040C4F202000EAA0891114670
:1019000000F09CFC1420052107900691089A00F035
:101910006FFF079800F060FF152005900699089A60
:1019200000F066FF059800F057FF71E0139800681B
:1019300046F60001C4F20001884268D1FFE7FFE7E4
:1019400000200B9043F64000C4F20200016841F011
:1019500080610160006800F080600B900B98FFE7E9
:1019600040F2D000C2F2000001680131016000685D
:10197000012812D1FFE7FFE700200A9043F640005C
:10198000C4F20200016841F000710160006800F0DB
:1019900000700A900A98FFE7FFE7FFE70020099030
:1019A00043F63000C4F20200016841F00201016018
:1019B000006800F0020009900998FFE74FF44050DA
:1019C0000E9002200F900020109003211191092108
:1019D000129140F20041C4F202010EAA049008469E
:1019E000114600F02BFC4020052103900291049A3F
:1019F00000F0FEFE039800F0EFFE412001900299F6
:101A0000049A00F0F5FE019800F0E6FEFFE7FFE71C
:101A100014B080BD81B0009001B0704780B58CB02B
:101A20000B9006F0FDF901688968002203911146C8
:101A3000039A904704900B9804990A68926902905F
:101A4000084690470299814209D1FFE7049801684E
:101A5000496905AA01911146019A9047FFE70CB028
:101A600080BD000081B0009001B0704780B58CB09F
:101A70000B9006F0D5F9016889680122039111469F
:101A8000039A904704900B9804990A68926902900F
:101A9000084690470299814209D1FFE704980168FE
:101AA000496905AA01911146019A9047FFE70CB0D8
:101AB00080BD000081B0009001B0704780B584B057
:101AC0000290029890F82000012830D1FFE7029898
:101AD000022180F8201002980068016821F00101BD
:101AE000016000F0A9FD0190FFE7029800684068DE
:101AF000C007002815D0FFE700F09EFD0199401AAD
:101B00000B280DD3FFE70298416A41F4003141628E
:101B10000298052180F8201001208DF80F000FE0B9
:101B2000E3E70298002141628DF80F1008E0029867
:101B3000416A41F40021416201208DF80F00FFE766
:101B40009DF80F0004B080BD81B0009001B07047D7
:101B500081B0009001B0704781B0009001B0704733
:101B600081B0009001B0704781B0009001B0704723
:101B700081B0009001B0704781B0009001B0704713
:101B800080B584B002900298806D019000F054FD01
:101B90000090029890F8350002280DD0FFE70298D7
:101BA00080214165FFE70298002180F83410FFE7AB
:101BB00001208DF80F0059E002980068016821F0BB
:101BC0001601016002980068416921F080014161BD
:101BD0000298006C002805D1FFE70298806C00286D
:101BE00007D0FFE702980068016821F00801016052
:101BF000FFE702980068016821F001010160FFE73A
:101C0000029800680068C007002819D0FFE700F0BC
:101C100013FD0099401A062811D3FFE702982021EE
:101C200041650298032180F83510FFE702980021F2
:101C300080F83410FFE703208DF80F0016E0DFE78F
:101C40000298C06D3F2101FA00F001998860029866
:101C5000012180F83510FFE70298002180F8341048
:101C6000FFE7FFE700208DF80F00FFE79DF80F006A
:101C700004B080BD82B00090009890F83500022832
:101C800007D0FFE700988021416501208DF807000B
:101C90000EE00098052180F8351000980068016872
:101CA00021F001010160FFE700208DF80700FFE748
:101CB0009DF8070002B0704780B586B005900020FF
:101CC000039040F20000C2F20000006848F2B51133
:101CD000C1F64E31A0FB0101890A02910599896D77
:101CE00001910199096804910499059AD26DD14036
:101CF000090700291BD5FFE7059800680068400721
:101D0000002813D5FFE705980068016821F0040159
:101D100001600598C06D082101FA00F00199886002
:101D20000598416D41F001014165FFE7FFE7049827
:101D30000599C96DC840C007002815D0FFE7059870
:101D400000684069000600280DD5FFE70598C06DC2
:101D5000012101FA00F0019988600598416D41F078
:101D600002014165FFE7FFE704980599C96DC84086
:101D70004007002815D5FFE7059800680068800730
:101D800000280DD5FFE70598C06D042101FA00F089
:101D9000019988600598416D41F004014165FFE7B4
:101DA000FFE704980599C96DC840C00600284BD5C7
:101DB000FFE70598006800680007002843D5FFE7A3
:101DC0000598C06D102101FA00F00199886005980E
:101DD00000680068400300281CD5FFE705980068EC
:101DE0000068000300280AD4FFE70598006C00286B
:101DF00004D0FFE70598016C8847FFE709E00598E4
:101E0000806C002804D0FFE70598816C8847FFE7C5
:101E1000FFE717E0059800680068C005002807D4B0
:101E2000FFE705980068016821F008010160FFE7FD
:101E30000598006C002804D0FFE70598016C8847DE
:101E4000FFE7FFE7FFE7FFE704980599C96DC84082
:101E50008006002840F19580FFE70598006800683B
:101E6000C006002840F18C80FFE70598C06D202156
:101E700001FA00F001998860059890F8350005286E
:101E800038D1FFE705980068016821F0160101606C
:101E900005980068416921F0800141610598006C56
:101EA000002805D1FFE70598806C002807D0FFE7E0
:101EB00005980068016821F008010160FFE70598B6
:101EC000C06D3F2101FA00F0019988600598012159
:101ED00080F83510FFE70598002180F83410FFE7FF
:101EE0000598006D002804D0FFE70598016D88472C
:101EF000FFE781E0059800680068400300281CD5D2
:101F0000FFE7059800680068000300280AD4FFE78F
:101F10000598406C002804D0FFE70598416C88477D
:101F2000FFE709E00598C06B002804D0FFE705989B
:101F3000C16B8847FFE7FFE721E00598006800686C
:101F4000C005002811D4FFE705980068016821F05A
:101F5000100101600598012180F83510FFE7059810
:101F6000002180F83410FFE7FFE70598C06B0028D8
:101F700004D0FFE70598C16B8847FFE7FFE7FFE75D
:101F8000FFE70598406D002836D0FFE70598406DC3
:101F9000C007002826D0FFE70598052180F83510F6
:101FA00005980068016821F001010160FFE70398CE
:101FB000013003900299884201D9FFE707E0FFE76B
:101FC000059800680068C0070028F0D1FFE7059871
:101FD000012180F83510FFE70598002180F83410C2
:101FE000FFE7FFE70598C06C002804D0FFE70598DD
:101FF000C16C8847FFE7FFE706B080BD80B586B0BB
:1020000004900020039000F017FB02900498002831
:1020100004D1FFE701208DF81700A7E00498406A7B
:10202000002801D0FFE7FFE70498022180F835106F
:10203000FFE70498002180F83410FFE70498006857
:10204000016821F001010160FFE704980068006861
:10205000C007002812D0FFE700F0EEFA0299401AFC
:1020600006280AD3FFE7049820214165049803213C
:1020700080F835108DF8171078E0E6E704980068CE
:1020800000680390039848F23F01CFF21001084026
:102090000390049841688268C368D0F810C0114367
:1020A000194341EA0C014269114382691143C26933
:1020B0001143006A08430399084303900498406A57
:1020C000042808D1FFE70498C16A006B084303990C
:1020D00008430390FFE7039804990968086004988F
:1020E000006840690390039820F00700039004986B
:1020F000406A0399084303900498406A04281CD15D
:10210000FFE70498806A0399084303900498C06A23
:10211000002811D0FFE70498FEF7E0FC00280AD061
:10212000FFE70498402141650498012180F83510AB
:102130008DF817101AE0FFE7FFE703980499096884
:1021400048610498FEF79EFC01900498C06D3F2101
:1021500001FA00F001998860049800214165049813
:10216000012280F835208DF81710FFE79DF8170041
:1021700006B080BD80B588B00690059104920393A7
:1021800000208DF80B000698806D0190FFE70698FF
:1021900090F83400012804D1FFE702208DF81F00D9
:1021A00047E00698012180F83410FFE7FFE7069822
:1021B00090F8350001282DD1FFE70698022180F81C
:1021C000351006980021416506980599049A039BED
:1021D000FEF700FD0698C06D3F2101FA00F001995D
:1021E000886006980068016841F016010160069851
:1021F000006C002807D0FFE706980068016841F0EE
:1022000008010160FFE706980068016841F00101DC
:10221000016009E0FFE70698002180F83410FFE72D
:1022200002208DF80B00FFE79DF80B008DF81F00D2
:10223000FFE79DF81F0008B080BD000090B00F9030
:102240000E9100200C900B900A900D90FFE70D98D6
:102250000F2800F2EE81FFE70D98012101FA00F04E
:102260000C900E9800680C9908400B900B980C99F4
:10227000884240F0D981FFE70E98406800F00300E3
:10228000012807D0FFE70E98406800F003000228FD
:102290002FD1FFE70F9880680A900D984000032126
:1022A00001FA00F00A9921EA00000A900E98C0682D
:1022B0000D99490088400A9908430A900A980F9995
:1022C00088600F9840680A900D98012101FA00F08B
:1022D0000A9921EA00000A900E984068C0F30010A5
:1022E0000D9988400A9908430A900A980F99486006
:1022F000FFE70E98406800F00300032818D0FFE7BE
:102300000F98C0680A900D984000032101FA00F070
:102310000A9921EA00000A900E9880680D994900F8
:1023200088400A9908430A900A980F99C860FFE705
:102330000E98406800F00300022826D1FFE70F98AE
:102340000D996FF0030202EA51010844006A0A90F5
:102350000D9800F0070080000F2101FA00F00A99A3
:1023600021EA00000A900E9800690D9901F007011A
:10237000890088400A9908430A900A980F990D9B92
:1023800002EA530211440862FFE70F9800680A90BE
:102390000D984000032101FA00F00A9921EA00009B
:1023A0000A900E98406800F003000D99490088409B
:1023B0000A9908430A900A980F9908600E98807944
:1023C0008007002800F02F81FFE7FFE70020099039
:1023D00043F64400C4F20200016841F48041016008
:1023E000006800F4804009900998FFE70D9820F0FC
:1023F000030043F60801C4F2010140580A900D9809
:1024000000F0030080000F2101FA00F00A9921EA90
:1024100000000A900F980021C4F20201884203D103
:10242000FFE7002008907AE00F9840F20041C4F2E4
:102430000201884203D1FFE7012007906CE00F986A
:1024400040F60001C4F20201884203D1FFE70220F6
:1024500006905EE00F9840F60041C4F20201884207
:1024600003D1FFE70320059050E00F9841F20001EF
:10247000C4F20201884203D1FFE70420049042E045
:102480000F9841F20041C4F20201884203D1FFE7F4
:102490000520039034E00F9841F60001C4F20201D8
:1024A000884203D1FFE70620029026E00F9841F60C
:1024B0000041C4F20201884203D1FFE707200190E6
:1024C00018E00F9842F20001C4F20201884203D1E1
:1024D000FFE7082000900AE00F9842F20041C4F2A2
:1024E00002010A22884208BF09220092FFE70098F1
:1024F0000190FFE701980290FFE702980390FFE741
:1025000003980490FFE704980590FFE7059806906C
:10251000FFE706980790FFE707980890FFE70898FD
:10252000C0B20D9901F00301890088400A9908435F
:102530000A900A980D9921F0030143F60802C4F2AB
:102540000102885043F60840C4F2010000680A9076
:102550000B980A9921EA00000A900E988079C0062B
:10256000002805D5FFE70B980A9908430A90FFE772
:102570000A9843F60841C4F20101086043F60C4092
:10258000C4F2010000680A900B980A9921EA000041
:102590000A900E9880798006002805D5FFE70B98F1
:1025A0000A9908430A90FFE70A9843F60C41C4F2DF
:1025B0000101086043F60440C4F2010000680A907B
:1025C0000B980A9921EA00000A900E9880798007FA
:1025D000002805D5FFE70B980A9908430A90FFE702
:1025E0000A9843F60441C4F20101086043F6004032
:1025F000C4F2010000680A900B980A9921EA0000D1
:102600000A900E988079C007002805D0FFE70B9844
:102610000A9908430A90FFE70A9843F60041C4F27A
:1026200001010860FFE7FFE7FFE70D9801300D901B
:102630000DE610B07047000044F2D830C2F200003E
:102640000068704740F21400C2F20000007844F2C3
:10265000D831C2F200010A681044086070470000D7
:1026600080B582B043F60040C4F20200016841F434
:1026700000710160016841F480610160016841F40A
:1026800080710160032000F0D3F80F2000F006F8FD
:10269000019000F075F8002002B080BD80B58CB0CC
:1026A0000B90002005900490FFE70020019043F676
:1026B0004400C4F20200016841F0010101600068B9
:1026C00000F0010001900198FFE706A803A900F0BF
:1026D00049FA00F089FA4000059005984DF68361AB
:1026E000C4F21B31A0FB01014FF0FF3202EB91411C
:1026F000049140F2CC51C2F200010022C4F2010266
:102700000A6040F2E732CA60049A4A6000220A6115
:102710008A608A610090084600F05AFE8DF80B002E
:102720009DF80B00002826D1FFE740F2CC50C2F202
:10273000000000F0A5FE8DF80B009DF80B000028AE
:1027400018D1FFE7192000F047F80B980F280CD894
:10275000FFE70B991920002200F04AF80B9840F28D
:102760001801C2F20001086003E001208DF80B009F
:10277000FFE7FFE7FFE79DF80B000CB080BD00000E
:1027800080B582B0FFE70020019043F64400C4F218
:102790000200016841F480410160006800F480405B
:1027A00001900198FFE7FFE70020009043F640000A
:1027B000C4F20200016841F080510160006800F03D
:1027C000805000900098FFE76FF001000F21002279
:1027D00000F00EF802B080BD80B582B001468DF8E1
:1027E00007009DF90700009108F056FD02B080BD7A
:1027F00080B588B003468DF81F0006910592002031
:102800000490039308F062FD04909DF91F00049961
:10281000069A059B0290084611461A4602F046FAAF
:10282000029901900846019908F058FD08B080BD52
:1028300080B582B00190019808F072FD02B080BDB1
:1028400080B584B000200290FFE70020019043F69D
:102850004000C4F20200016841F08051016000684C
:1028600000F0805001900198FFE74020C4F20E2054
:1028700001210160FFF7E0FE0290FFE747F204004C
:10288000C4F20000006800F48030B0F5803F0DD045
:10289000FFE7FFF7D1FE0299401AB0F57A7F04D91D
:1028A000FFE703208DF80F0025E0E7E74420C4F29E
:1028B0000E2001210160FFF7BFFE0290FFE747F203
:1028C0000400C4F20000006800F40030B0F5003FDE
:1028D0000DD0FFE7FFF7B0FE0299401AB0F57A7FFE
:1028E00004D9FFE703208DF80F0004E0E7E700209C
:1028F0008DF80F00FFE79DF80F0004B080BD0000C9
:1029000080B584B0029001910298002804D1FFE7BD
:1029100001208DF80F0021E1019843F60041C4F237
:102920000201096801F00F01884212D9FFE70198FE
:1029300043F60041C4F202010870086800F00F007D
:102940000199884204D0FFE701208DF80F0005E1CE
:10295000FFE702980078800700282AD5FFE7029851
:1029600000784007002809D5FFE743F60800C4F2C5
:102970000200016841F4E0510160FFE7029800782D
:102980000007002809D5FFE743F60800C4F202005B
:10299000016841F460410160FFE743F60800C4F2BA
:1029A0000200016821F0F001029A9268114301606F
:1029B000FFE702980078C00700286ED0FFE7029872
:1029C0004068012811D1FFE743F60000C4F202007D
:1029D000006800F400300021B1EB504F04D1FFE754
:1029E00001208DF80F00B9E02CE002984068022821
:1029F00005D0FFE702984068032811D1FFE743F6AE
:102A00000000C4F20200006800F000700021B1EB89
:102A1000506F04D1FFE701208DF80F009EE010E019
:102A200043F60000C4F20200006800F0020000213A
:102A3000B1EB500F04D1FFE701208DF80F008DE0BE
:102A4000FFE7FFE743F60800C4F20200016821F047
:102A50000301029A526811430160FFF7EDFD0090F7
:102A6000FFE743F60800C4F20200006800F00C0023
:102A700002994968B0EB810F0ED0FFE7FFF7DCFD4C
:102A80000099401A41F28931884204D3FFE70320BC
:102A90008DF80F0062E0E4E7FFE7019843F600419C
:102AA000C4F20201096801F00F01884212D2FFE767
:102AB000019843F60041C4F202010870086800F072
:102AC0000F000199884204D0FFE701208DF80F0024
:102AD00044E0FFE702980078400700280CD5FFE7A4
:102AE00043F60800C4F20200016821F4E051029AA2
:102AF000D26811430160FFE70298007800070028C0
:102B00000DD5FFE743F60800C4F20200016821F486
:102B10006041029A126941EAC2010160FFE700F0D8
:102B200075F843F60801C4F202010968C9B209093F
:102B30004DF2E462C0F60002515CC84040F2000170
:102B4000C2F20001086040F21800C2F20000006802
:102B5000FFF7A4FD00218DF80F10FFE79DF80F008F
:102B600004B080BD82B00190009101980F210160F6
:102B700043F60800C4F20200016801F00301019A63
:102B80005160016801F0F001019A9160016801F45F
:102B9000E051019AD160006800F46040C0080199DA
:102BA000086143F60040C4F20200006800F00F0024
:102BB0000099086002B0704740F20000C2F20000C5
:102BC0000068704780B5FFF7F7FF43F60801C4F2CD
:102BD00002010968C1F382214DF2F462C0F60002DD
:102BE000515CC84080BD000080B5FFF7E5FF43F6AB
:102BF0000801C4F20201096889B2490B4DF2F4627E
:102C0000C0F60002515CC84080BD000080B586B0AF
:102C10000020059004900390029043F60800C4F24F
:102C20000200006800F00C0001460028019108D065
:102C3000FFE7019804280AD0FFE7019808280CD084
:102C40004FE042F20040C0F2F40002904FE041F643
:102C50000030C0F2B700029049E043F60400C4F22D
:102C60000200016801F03F01059100684002002860
:102C700013D5FFE743F60400C4F202000068C0F376
:102C8000881041F60031C0F2B701A0FB0101059A9E
:102C90000023FDF709FB049012E043F60400C4F2A0
:102CA00002000068C0F3881042F20041C0F2F40153
:102CB000A0FB0101059A0023FDF7F6FA0490FFE757
:102CC00043F60400C4F20200006800F44030022120
:102CD00001EBD030039004980399B0FBF1F002901F
:102CE00005E042F20040C0F2F4000290FFE70298D3
:102CF00006B080BD80B586B004900498002804D149
:102D0000FFE701208DF8170055E304980078C0070D
:102D1000002800F0A780FFE743F60800C4F2020095
:102D2000006800F00C00042813D0FFE743F6080009
:102D3000C4F20200006800F00C0008281FD1FFE771
:102D400043F60400C4F2020000684002002816D5D1
:102D5000FFE743F60000C4F20200006800F4003010
:102D60000021B1EB504F09D0FFE7049840680028DC
:102D700004D1FFE701208DF817001CE371E0FFE7A5
:102D800004984068B0F5803F09D1FFE743F60000A2
:102D9000C4F20200016841F48031016020E004982F
:102DA0004068B0F5A02F0DD1FFE743F60000C4F254
:102DB0000200016841F480210160016841F4803122
:102DC00001600CE043F60000C4F20200016821F447
:102DD00080310160016821F480210160FFE7FFE795
:102DE000FFE70498406800281DD0FFE7FFF724FCA8
:102DF0000390FFE743F60000C4F20200006800F40D
:102E000000300021B1EB504F0CD1FFE7FFF714FC6D
:102E10000399401A652804D3FFE703208DF81700B3
:102E2000C9E2E7E71CE0FFF707FC0390FFE743F682
:102E30000000C4F20200006800F400300021B1EB91
:102E4000504F0CD0FFE7FFF7F7FB0399401A6528B6
:102E500004D3FFE703208DF81700ACE2E7E7FFE7B4
:102E6000FFE7FFE7049800788007002840F197808B
:102E7000FFE743F60800C4F20200006810F00C0FF0
:102E800013D0FFE743F60800C4F20200006800F028
:102E90000C0008282CD1FFE743F60400C4F202001E
:102EA00000684002002823D4FFE743F60000C4F284
:102EB0000200006800F002000021B1EB500F09D0C1
:102EC000FFE70498C068012804D0FFE701208DF8CF
:102ED000170070E243F60000C4F20200016821F01E
:102EE000F801049A126941EAC2010160FFE755E066
:102EF0000498C06800282ED0FFE70020C4F24720C5
:102F000001210160FFF798FB0390FFE743F6000003
:102F1000C4F20200006800F002000021B1EB500F83
:102F20000CD1FFE7FFF788FB0399401A032804D36D
:102F3000FFE703208DF817003DE2E7E743F60000C6
:102F4000C4F20200016821F0F801049A126941EA12
:102F5000C201016021E00020C4F24720002101608D
:102F6000FFF76AFB0390FFE743F60000C4F202009C
:102F7000006800F002000021B1EB500F0CD0FFE719
:102F8000FFF75AFB0399401A032804D3FFE70320F5
:102F90008DF817000FE2E7E7FFE7FFE7FFE7049888
:102FA0000078000700284CD5FFE704984069002806
:102FB00023D0FFE740F68060C4F247200121016082
:102FC000FFF73AFB0390FFE743F67400C4F20200F8
:102FD000006800F002000021B1EB500F0CD1FFE7B8
:102FE000FFF72AFB0399401A032804D3FFE70320C5
:102FF0008DF81700DFE1E7E722E040F68060C4F2D9
:10300000472000210160FFF717FB0390FFE743F61D
:103010007400C4F20200006800F002000021B1EB6D
:10302000500F0CD0FFE7FFF707FB0399401A032866
:1030300004D3FFE703208DF81700BCE1E7E7FFE7C3
:10304000FFE7049800784007002840F1CF80FFE7B1
:1030500000208DF8070043F64000C4F2020000682B
:10306000C000002815D4FFE7FFE70020009043F6DA
:103070004000C4F20200016841F080510160006824
:1030800000F0805000900098FFE701208DF80700C5
:10309000FFE747F20000C4F200000068C005002806
:1030A00022D4FFE747F20000C4F20000016841F4B7
:1030B00080710160FFF7C0FA0390FFE747F200005C
:1030C000C4F200000068C00500280CD4FFE7FFF739
:1030D000B3FA0399401A032804D3FFE703208DF8BD
:1030E000170068E1EAE7FFE7FFE704988068012836
:1030F00009D1FFE743F67000C4F20200016841F015
:10310000010101601FE00498806805280DD1FFE7E8
:1031100043F67000C4F20200016841F0040101604E
:10312000016841F0010101600CE043F67000C4F257
:103130000200016821F001010160016821F0040131
:103140000160FFE7FFE7FFE70498806800281FD0D1
:10315000FFE7FFF771FA0390FFE743F67000C4F250
:103160000200006800F002000021B1EB500F0ED108
:10317000FFE7FFF761FA0399401A41F2893188426B
:1031800004D3FFE703208DF8170014E1E5E71EE004
:10319000FFF752FA0390FFE743F67000C4F2020013
:1031A000006800F002000021B1EB500F0ED0FFE7E5
:1031B000FFF742FA0399401A41F28931884204D359
:1031C000FFE703208DF81700F5E0E5E7FFE79DF83E
:1031D0000700012809D1FFE743F64000C4F20200CE
:1031E000016821F080510160FFE7FFE704988069E2
:1031F000002800F0DC80FFE743F60800C4F202007C
:10320000006800F00C00082800F08580FFE70498B3
:10321000806902285CD1FFE76020C4F247200021CA
:103220000160FFF709FA0390FFE743F60000C4F2DC
:103230000200006800F000700021B1EB506F0CD06C
:10324000FFE7FFF7F9F90399401A032804D3FFE7D2
:1032500003208DF81700AEE0E7E70498C169026A21
:10326000436AD0F828C0114341EA83114FEACC32B7
:103270004FF6FF739A43A2F580321143C06A41EAC8
:10328000006043F60401C4F2020108606020C4F249
:10329000472001210160FFF7CFF90390FFE743F6D4
:1032A0000000C4F20200006800F000700021B1EBE1
:1032B000506F0CD1FFE7FFF7BFF90399401A0328BD
:1032C00004D3FFE703208DF8170074E0E7E721E05F
:1032D0006020C4F2472000210160FFF7ADF90390A0
:1032E000FFE743F60000C4F20200006800F000703F
:1032F0000021B1EB506F0CD0FFE7FFF79DF9039968
:10330000401A032804D3FFE703208DF8170052E08A
:10331000E7E7FFE74AE004988069012804D1FFE766
:1033200001208DF8170046E043F60400C4F20200C5
:103330000068029004988069012831D0FFE7029864
:1033400000F480000499C969884229D1FFE70298F6
:1033500000F03F000499096A884221D1FFE70298F2
:1033600047F6C07108400499496AB0EB811F17D134
:10337000FFE7029800F440300499896AC9034FF6C8
:10338000FF729143A1F58031884209D1FFE702988D
:1033900000F070600499C96AB0EB016F04D0FFE7D8
:1033A00001208DF8170006E0FFE7FFE7FFE70020A8
:1033B0008DF81700FFE79DF8170006B080BD0000EC
:1033C00081B0009001B0704781B0009001B07047AB
:1033D00080B584B002900298002804D1FFE7012054
:1033E0008DF80F0043E0029890F83D00002808D1C6
:1033F000FFE70298002180F83C10029800F03CF8AA
:10340000FFE70298022180F83D10029850F8041B53
:1034100001900846019901F07DFD0298012180F894
:103420004610FFE70298012180F83E10029880F8CC
:103430003F10029880F84010029880F84110FFE792
:10344000FFE70298012180F84210029880F84310AB
:10345000029880F84410029880F84510FFE702981F
:10346000012180F83D1000208DF80F00FFE79DF846
:103470000F0004B080BD000081B0009001B0704723
:1034800083B00190019890F83D00012804D0FFE737
:1034900001208DF80B006AE00198022180F83D10B0
:1034A00001980068C16841F00101C160019800689D
:1034B0000021C4F2010188423CD0FFE70198006876
:1034C000B0F1804F36D0FFE70198006840F200412C
:1034D000C4F2000188422DD0FFE70198006840F651
:1034E0000001C4F20001884224D0FFE7019800687F
:1034F00040F60041C4F2000188421BD0FFE701986A
:10350000006840F20041C4F20101884212D0FFE796
:103510000198006844F20001C4F20101884209D018
:10352000FFE70198006841F60001C4F200018842FB
:1035300012D1FFE701980068806800F00700009052
:103540000098062807D0FFE701980068016841F05D
:1035500001010160FFE706E001980068016841F0A1
:1035600001010160FFE700208DF80B00FFE79DF8E7
:103570000B0003B07047000081B0009001B07047AD
:1035800080B584B0039003980068C06802900398E7
:103590000068006901909DF804008007002825D587
:1035A000FFE79DF80800800700281ED5FFE7039875
:1035B00000686FF00201016103980121017703980F
:1035C000006880698007002804D0FFE70398FFF7B0
:1035D000D3FF06E0039800F01BF9039800F032FADD
:1035E000FFE7039800210177FFE7FFE79DF804005C
:1035F0004007002825D5FFE79DF808004007002870
:103600001ED5FFE7039800686FF00401016103987D
:103610000221017703980068806910F4407F04D08C
:10362000FFE70398FFF7A8FF06E0039800F0F0F823
:10363000039800F007FAFFE7039800210177FFE7FE
:10364000FFE79DF804000007002825D5FFE79DF857
:103650000800000700281ED5FFE7039800686FF0F8
:103660000801016103980421017703980068C0698B
:103670008007002804D0FFE70398FFF77DFF06E0EE
:10368000039800F0C5F8039800F0DCF9FFE7039811
:1036900000210177FFE7FFE79DF80400C00600283E
:1036A00025D5FFE79DF80800C00600281ED5FFE7D6
:1036B000039800686FF010010161039808210177F9
:1036C00003980068C06910F4407F04D0FFE70398B6
:1036D000FFF752FF06E0039800F09AF8039800F015
:1036E000B1F9FFE7039800210177FFE7FFE79DF8B5
:1036F0000400C007002810D0FFE79DF80800C007AD
:10370000002809D0FFE7039800686FF0010101610C
:10371000039800F09BF9FFE7FFE79DF8040000061F
:10372000002810D5FFE79DF808000006002809D5FD
:10373000FFE7039800686FF0800101610398FFF7CD
:103740003FFEFFE7FFE79DF804004006002810D584
:10375000FFE79DF808004006002809D5FFE7039819
:1037600000686FF040010161039800F07FF9FFE706
:10377000FFE79DF804008006002810D5FFE79DF8BC
:1037800008008006002809D5FFE7039800686FF05D
:10379000200101610398FFF717FEFFE7FFE704B080
:1037A00080BD000080B588B007900020069005908D
:1037B0000490039002900798006841F60001C4F25B
:1037C0000001884222D1FFE7FFE70020019043F685
:1037D0003000C4F20200016841F08001016000681D
:1037E00000F0800001900198FFE740200290022045
:1037F00003900020049005900920069041F60040B7
:10380000C4F2020002A9FEF719FDFFE708B080BD6F
:1038100081B0009001B0704780B586B004900391EC
:10382000029200208DF80700FFE7049890F83C0012
:10383000012804D1FFE702208DF8170089E00498E1
:10384000012180F83C10FFE7FFE702980C28009068
:1038500000F270800099DFE801F0076D6D6D206D5A
:103860006D6D3A6D6D6D530004980068039901F019
:1038700023FC04980068816941F008018161049883
:103880000068816921F0040181610398006904994D
:1038900009688A691043886150E0049800680399B8
:1038A00001F080FC04980068816941F40061816145
:1038B00004980068816921F480618161039800693E
:1038C000049909688A6942EA0020886136E0049810
:1038D0000068039901F0E0FC04980068C16941F0B8
:1038E0000801C16104980068C16921F00401C16147
:1038F0000398006904990968CA691043C8611DE00A
:1039000004980068039901F041FD04980068C169BA
:1039100041F40061C16104980068C16921F48061CB
:10392000C1610398006904990968CA6942EA0020E4
:10393000C86103E001208DF80700FFE7FFE7049866
:10394000002180F83C10FFE79DF807008DF8170074
:10395000FFE79DF8170006B080BD000080B584B079
:1039600002900298002804D1FFE701208DF80F0093
:1039700043E0029890F83D00002808D1FFE7029844
:10398000002180F83C10029800F03CF8FFE7029814
:10399000022180F83D10029850F8041B019008465F
:1039A000019901F0B7FA0298012180F84610FFE76B
:1039B0000298012180F83E10029880F83F1002988A
:1039C00080F84010029880F84110FFE7FFE7029866
:1039D000012180F84210029880F84310029880F884
:1039E0004410029880F84510FFE70298012180F802
:1039F0003D1000208DF80F00FFE79DF80F0004B088
:103A000080BD000082B001900198006841F600017D
:103A1000C4F20001884212D1FFE7FFE700200090C6
:103A200043F64000C4F20200016841F04001016029
:103A3000006800F0400000900098FFE7FFE702B048
:103A40007047000081B0009001B0704780B582B02F
:103A50000190019800680021C4F20101884203D15D
:103A6000FFE7FEF7EFFDFFE702B080BD81B00090F9
:103A700001B0704780B586B0134604900391ADF84D
:103A80000A20049890F8420020284AD1FFE70398C2
:103A9000002805D0FFE7BDF80A00002804D1FFE7A1
:103AA00001208DF8170040E004980121016304987B
:103AB0000021416304980399BDF80A2001F0C2FF78
:103AC0008DF809000498006B012821D1FFE7FFE77A
:103AD0000020019004980068006801900498006834
:103AE000406801900198FFE7FFE7FFE7049800684E
:103AF00050E8030F40F010000090FFE70098049991
:103B0000096841E80302002AF0D1FFE7FFE703E07C
:103B100001208DF80900FFE79DF809008DF81700D6
:103B200003E002208DF81700FFE79DF8170006B0AC
:103B300080BD000080B58AB00A460990ADF8221019
:103B40000998006841F20001C4F2010188422FD1B6
:103B5000FFE74DF26460C0F600000168406807901E
:103B6000069105F063F90168896800220491114605
:103B7000049A90470590099805990A68926B0390FA
:103B8000084690470399814211D1FFE705980168E3
:103B9000896A06AA02911146029B019298470599EB
:103BA0000A68126B0090084601999047FFE7FFE70B
:103BB0000AB080BD81B0009001B0704780B592B06E
:103BC0001190119800680068109011980068C06802
:103BD0000F901198006840690E9000200D900C9095
:103BE000109800F00F000D900D98002811D1FFE7FC
:103BF0009DF84000800600280AD5FFE79DF83C00AC
:103C00008006002804D5FFE7119801F0B7FD0AE20D
:103C1000FFE70D98002800F0CA80FFE79DF8380004
:103C2000C007002807D1FFE7BDF83C0010F4907FE3
:103C300000F0BD80FFE79DF84000C00700280CD0D1
:103C4000FFE79DF83D00C007002806D0FFE7119868
:103C5000416C41F001014164FFE79DF840004007DD
:103C600000280CD5FFE79DF83800C007002806D0D3
:103C7000FFE71198416C41F002014164FFE79DF8B4
:103C80004000800700280CD5FFE79DF83800C007EA
:103C9000002806D0FFE71198416C41F0040141640F
:103CA000FFE79DF840000007002812D5FFE79DF8C8
:103CB0003C008006002806D4FFE79DF83800C007C6
:103CC000002806D0FFE71198416C41F008014164DB
:103CD000FFE71198406C002868D0FFE79DF840008E
:103CE000800600280AD5FFE79DF83C0080060028E2
:103CF00004D5FFE7119801F041FDFFE71198006836
:103D00004069C0F380100C901198406C00070028A7
:103D100004D4FFE70C98002840D0FFE7119801F089
:103D2000B3FC1198006840694006002831D5FFE7D0
:103D3000FFE7FFE71198006850E8050F20F040000A
:103D40000B90FFE70B981199096841E80502002ADA
:103D5000F0D1FFE7FFE71198C06B002814D0FFE710
:103D60001198C06B45F23141C0F600010165119810
:103D7000C06BFDF77FFF002805D0FFE71198C06BEF
:103D8000016D8847FFE703E01198FFF713FFFFE796
:103D900003E01198FFF70EFFFFE706E01198FFF729
:103DA00009FF119800214164FFE7FFE73BE111980B
:103DB000006B012840F01781FFE79DF84000C00626
:103DC000002840F11081FFE79DF83C00C006002864
:103DD00040F10981FFE7FFE700200A901198006891
:103DE00000680A901198006840680A900A98FFE7F6
:103DF0001198006840694006002840F19A80FFE76A
:103E00001198C06B00684068ADF82600BDF8260028
:103E1000002875D0FFE7BDF826001199898D8842EA
:103E20006EDAFFE7BDF826001199C8851198C06BBE
:103E3000C069B0F5807F58D0FFE7FFE7FFE7119832
:103E4000006850E8030F20F480700890FFE708989E
:103E50001199096841E80302002AF0D1FFE7FFE762
:103E6000FFE7FFE71198006850E8050F20F0010018
:103E70000790FFE707981199096841E80502002AB1
:103E8000F0D1FFE7FFE7FFE7FFE71198006850E890
:103E9000050F20F040000690FFE706981199096889
:103EA00041E80502002AF0D1FFE7FFE71198202141
:103EB00080F84210119800210163FFE7FFE7119895
:103EC000006850E8030F20F010000590FFE7059808
:103ED0001199096841E80302002AF0D1FFE7FFE7E2
:103EE0001198C06BFDF74CFEFFE71198022141636A
:103EF0001198818DC28D891A89B2FFF71BFE17E0D8
:103F0000BDF826001199898D884210D1FFE71198DC
:103F1000C06BC069B0F5807F08D1FFE7119802211E
:103F200041631198818DFFF705FEFFE7FFE7FFE78B
:103F300079E01198818DC08D081AADF812001198A2
:103F4000C08D00284ED0FFE7BDF81200002849D0F0
:103F5000FFE7FFE7FFE71198006850E8030F20F440
:103F600090700390FFE703981199096841E80302F4
:103F7000002AF0D1FFE7FFE7FFE7FFE711980068AD
:103F800050E8050F20F001000290FFE70298119918
:103F9000096841E80502002AF0D1FFE7FFE7119820
:103FA000202180F84210119800210163FFE7FFE70C
:103FB0001198006850E8030F20F010000190FFE70F
:103FC00001981199096841E80302002AF0D1FFE73E
:103FD000FFE71198022141631198BDF81210FFF715
:103FE000A9FDFFE71FE09DF84000000600280AD564
:103FF000FFE79DF83C000006002804D5FFE7119874
:1040000001F0F2FD0FE09DF84000400600280AD5BF
:10401000FFE79DF83C004006002804D5FFE7119813
:1040200001F07CFBFFE712B080BD000080B582B0DC
:1040300000900098002804D1FFE701208DF80700C8
:1040400042E000988069002801D0FFE700E0FFE728
:10405000009890F84100002808D1FFE7009800215F
:1040600080F84010009800F033F8FFE70098242112
:1040700080F8411000980068C16821F40051C160C7
:10408000009801F033FC00980068016921F4904128
:10409000016100980068416921F02A01416100989E
:1040A0000068C16841F40051C1600098002141647A
:1040B0000098202280F84120009880F84220009843
:1040C00041638DF80710FFE79DF8070002B080BD3F
:1040D00080B590B00F9000200E900D900C900B903A
:1040E0000A900F98006841F20001C4F20101884271
:1040F00069D1FFE7FFE70020099043F64400C4F2CE
:104100000200016841F010010160006800F0100039
:1041100009900998FFE7FFE70020089043F6300078
:10412000C4F20200016841F002010160006800F081
:10413000020008900898FFE7C0200A9002200B9028
:1041400000200C9003210D9107210E9140F20041B7
:10415000C4F202010AAA039008461146FEF76EF85F
:1041600040F2AC40C2F2000046F24041C4F202010B
:1041700001604FF00061416003998160C1604FF4BC
:104180008062026141618161C16101624162FDF74A
:1041900035FF002803D0FFE7FCF746FDFFE7FFE708
:1041A0000F9840F2AC41C2F20001C1630F988863DE
:1041B000FFE72520052100220290FEF719FB029857
:1041C000FEF70AFBDDE00F98006844F60001C4F238
:1041D0000001884235D1FFE7FFE70020079043F652
:1041E0004000C4F20200016841F4802101600068CF
:1041F00000F4802007900798FFE7FFE70020069073
:1042000043F63000C4F20200016841F0040101608D
:10421000006800F0040006900698FFE74FF4406045
:104220000A9002200B9000200C9003200D90072094
:104230000E9040F60000C4F202000AA9FDF7FEFF4E
:104240009EE00F98006841F20041C4F201018842EB
:1042500040F09580FFE7FFE70020059043F644001B
:10426000C4F20200016841F020010160006800F022
:10427000200005900598FFE7FFE70020049043F633
:104280003000C4F20200016841F0400101600068A2
:1042900000F0400004900498FFE74FF484400A9037
:1042A00002200B9000200C9003210D9108210E910B
:1042B00041F60001C4F202010AAA01900846114623
:1042C000FDF7BCFF40F20C50C2F2000046F228415C
:1042D000C4F2020101604FF02061416001998160E8
:1042E000C1604FF48062026141618161C16101621C
:1042F0004162FDF783FE002803D0FFE7FCF794FC42
:10430000FFE7FFE70F9840F20C51C2F20001C163D2
:104310000F988863FFE740F26C50C2F2000046F24B
:10432000A041C4F2020101604FF0206141604021D0
:1043300081600021C1604FF480620261416181614E
:10434000C16101624162FDF759FE002803D0FFE719
:10435000FCF76AFCFFE7FFE70F9840F26C51C2F2EE
:10436000000181630F988863FFE747200521002241
:104370000090FEF73DFA0098FEF72EFAFFE7FFE700
:10438000FFE710B080BD000080B58AB09446089069
:104390000791ADF81A20059300200290089890F834
:1043A0004200202840F08F80FFE70798002805D0C2
:1043B000FFE7BDF81A00002804D1FFE701208DF8BF
:1043C000270084E00898002141640898222280F8A0
:1043D000422008980163FEF72FF90290BDF81A00F9
:1043E00008998885BDF81A000899C88508988068DA
:1043F000B0F5805F0AD1FFE708980069002805D171
:10440000FFE7002004900798039004E007980490C9
:1044100000200390FFE7FFE70898C08D00284AD0EE
:10442000FFE70898029B05996A4611602021002247
:1044300001F026FC002808D0FFE70898202180F82A
:10444000421003208DF8270041E0049800280BD18A
:10445000FFE70898006840686FF35F2003990880C1
:1044600003980230039021E008988068B0F5805FDF
:104470000AD0FFE70898806800280BD1FFE708986A
:104480000069002806D1FFE7089800684068049991
:10449000087007E008980068406800F07F00049901
:1044A0000870FFE7049801300490FFE70898C18D79
:1044B0000139C185B0E70898202180F8421000201A
:1044C0008DF8270003E002208DF82700FFE79DF814
:1044D00027000AB080BD000080B584B0134602906A
:1044E0000191ADF80220029890F84200202819D1DD
:1044F000FFE70198002805D0FFE7BDF8020000287B
:1045000004D1FFE701208DF80F000FE00298002191
:10451000016302980199BDF8022001F093FA8DF829
:104520000F0003E002208DF80F00FFE79DF80F0059
:1045300004B080BD80B584B0134602900191ADF8FF
:104540000220029890F84200202819D1FFE7019834
:10455000002805D0FFE7BDF80200002804D1FFE7DE
:1045600001208DF80F000FE00298002101630298EE
:104570000199BDF8022001F003FB8DF80F0003E064
:1045800002208DF80F00FFE79DF80F0004B080BDFA
:1045900081B0009001B0704781B0009001B07047C9
:1045A00080B58AB0944608900791ADF81A2005931B
:1045B00000200290089890F84100202840F0888060
:1045C000FFE70798002805D0FFE7BDF81A0000288C
:1045D00004D1FFE701208DF827007DE00898002135
:1045E00041640898212180F84110FEF725F80290D7
:1045F000BDF81A0008998884BDF81A000899C88483
:1046000008988068B0F5805F0AD1FFE708980069D4
:10461000002805D1FFE7002004900798039004E0EC
:104620000798049000200390FFE7FFE70898C08CEC
:10463000002831D0FFE70898029B05996A4611606F
:104640008021002201F01CFB002808D0FFE7089819
:10465000202180F8411003208DF827003CE00498C9
:1046600000280BD1FFE7039800886FF35F200899BB
:104670000968486003980230039008E004980078C5
:10468000089909684860049801300490FFE7089889
:10469000C18C0139C184C9E70898029B05996A4613
:1046A00011604021002201F0EBFA002808D0FFE75A
:1046B0000898202180F8411003208DF827000BE096
:1046C0000898202180F8411000208DF8270003E091
:1046D00002208DF82700FFE79DF827000AB080BD73
:1046E00080B588B0134606900591ADF81220069863
:1046F00090F84100202870D1FFE70598002805D0E8
:10470000FFE7BDF81200002804D1FFE701208DF873
:104710001F0066E0059806990862BDF81200069928
:104720008884BDF812000699C88406980021416467
:104730000698212280F841200698806B45F2F552B8
:10474000C0F60002C2630698806B45F27162C0F643
:10475000000202640698806B45F24D42C0F60002EA
:10476000C2640698806B016505A8039006980168ED
:10477000806B039A12680431BDF812300191114622
:10478000019AFDF7F7FC00280BD0FFE706981021EF
:1047900041640698202180F8411001208DF81F0007
:1047A0001FE0069800686FF040010160FFE7FFE737
:1047B0000698006850E8050F40F080000290FFE77F
:1047C00002980699096841E80502002AF0D1FFE73E
:1047D000FFE700208DF81F0003E002208DF81F0086
:1047E000FFE79DF81F0008B080BD000084B01346AD
:1047F00002900191ADF80220029890F84100202823
:1048000028D1FFE70198002805D0FFE7BDF8020096
:10481000002804D1FFE701208DF80F001EE0019869
:1048200002990862BDF8020002998884BDF802006E
:104830000299C8840298002141640298212280F8DC
:10484000412002980068C26842F08002C2608DF880
:104850000F1003E002208DF80F00FFE79DF80F0016
:1048600004B0704781B0009001B0704781B00090F3
:1048700001B07047FFE7FEE780B540F25C40C2F24E
:10488000000046F20041C4F20001016009214160CC
:1048900000218160C1604FF4803202614FF48012C8
:1048A0004261017641768176C17601774177FCF7E6
:1048B000E5FE002803D0FFE7FCF7B6F9FFE780BD6F
:1048C00080B540F28440C2F2000046F60001C4F216
:1048D000000101600921416000218160C1604FF445
:1048E000803202614FF48012426101764176817616
:1048F000C17601774177FCF7C1FE002803D0FFE7BE
:10490000FCF792F9FFE780BD80B586B0FFE7002095
:10491000059043F63000C4F20200016841F48001C2
:104920000160006800F4800005900598FFE73920D9
:1049300005210022049003910292FDF759FF04988B
:10494000FDF74AFF3A2001900399029AFDF750FFC4
:104950000198FDF741FF452000900399029AFDF769
:1049600047FF0098FDF738FF06B080BD10B59EB038
:104970004DF2C060C0F60000016842688368D0F85C
:104980000CC0D0F810E044691C94CDF86CE0CDF870
:1049900068C019931892179180691D9017A800217B
:1049A000019106F0E9FD40F25431C2F200010860C5
:1049B0004DF2A460C0F60000016842688368D0F838
:1049C0000CC0D0F810E044691594CDF850E0CDF853
:1049D0004CC01293119210918069169010A8019901
:1049E00006F0CAFD40F26821C2F2000108604DF2F3
:1049F0008860C0F60000016842688368D0F80CC087
:104A0000D0F810E044690E94CDF834E0CDF830C011
:104A10000B930A92099180690F9009A8019906F0F9
:104A2000ABFD40F28401C2F2000108604DF26C60FF
:104A3000C0F60000016842688368D0F80CC0D0F866
:104A400010E044690794CDF818E0CDF814C0049341
:104A5000039202918069089002A8019906F08CFDEA
:104A600040F28001C2F2000108601EB010BD0000DB
:104A700086B0FFE70020059043F63000C4F2020044
:104A8000016841F040010160006800F040000590BD
:104A90000598FFE7FFE70020049043F63000C4F2DA
:104AA0000200016841F001010160006800F00100AE
:104AB00004900498FFE7FFE70020039043F63000DE
:104AC000C4F20200016841F002010160006800F0D8
:104AD000020003900398FFE7FFE70020029043F6EF
:104AE0003000C4F20200016841F008010160006872
:104AF00000F0080002900298FFE7FFE70020019015
:104B000043F63000C4F20200016841F00401016084
:104B1000006800F0040001900198FFE7FFE7002023
:104B2000009043F63000C4F20200016841F08001B9
:104B30000160006800F0800000900098FFE706B078
:104B40007047000080B588B000200790069005905F
:104B5000049003900290019040F21461C2F20001AF
:104B600041F60002C4F200020A60B3224A60886083
:104B7000F922CA60086188610846FEF7EFFE002846
:104B800003D0FFE7FCF750F8FFE76020019000201A
:104B900002900390059040F21461C2F2000101AA54
:104BA000009008461146009AFEF736FE002803D012
:104BB000FFE7FCF739F8FFE740F21460C2F20000AB
:104BC000FEF7F0FD08B080BD80B540F25C60C2F237
:104BD000000041F20001C4F20101016048F2A0614D
:104BE000C0F2010141604FF4805181600021C16039
:104BF0004FF4806202610C2242618161C161FFF762
:104C000015FA002803D0FFE7FCF70EF8FFE780BD98
:104C100080B540F2A460C2F2000044F60001C4F284
:104C2000000101604FF4E131416000218160C16009
:104C300001610C2242618161C161FFF7F7F900282F
:104C400003D0FFE7FBF7F0FFFFE780BD80B540F240
:104C5000EC60C2F2000041F20041C4F201010160C7
:104C60004FF4E131416000218160C16001610C229B
:104C700042618161C161FFF7D9F9002803D0FFE7E4
:104C8000FBF7D2FFFFE780BDFFE7FEE780B582B00C
:104C9000019001F00DF9FFE701F0A0FA012006F004
:104CA0004FFC0090F8E70000FFE7FEE788B00790B0
:104CB00006910592079800F0070004900498C0F14F
:104CC0000700052803D3FFE70420019004E00498BF
:104CD000C0F107000190FFE70198039004980430A9
:104CE000062803D8FFE70020009003E0049803386B
:104CF0000090FFE70098029006980399012202FABB
:104D000001F10139084002998840059B02FA01F13E
:104D100001391940084308B0704700000000000046
:104D2000EFF30980BFF36F8F154B1A681EF0100F59
:104D300008BF20ED108A20E9F04F10602DE909002E
:104D40004FF0500080F31188BFF34F8FBFF36F8F88
:104D500007F058FB4FF0000080F31188BDE8090010
:104D600019680868B0E8F04F1EF0100F08BFB0ECEB
:104D7000108A80F30988BFF36F8F704700BF00BFB0
:104D800034070020000000000000000000000000C8
:104D9000074B19680868B0E8F04F80F30988BFF343
:104DA0006F8F4FF0000080F31188704700BF00BF85
:104DB0003407002080B582B0019001F025F8FFE7AC
:104DC000012006F0BDFB0090FAE7000080B582B03C
:104DD0000190FFE7012006F0B3FB0090FAE7000026
:104DE00080B582B04FF0500080F31188BFF36F8F11
:104DF000BFF34F8F009007F0D9FC002808D0FFE7E1
:104E00004EF60450CEF200004FF080510160FFE7F3
:104E100000200190019880F3118802B080BD00004D
:104E200080B594B008A83021FBF7F8FA002007906D
:104E30000690059004900390FFE70020029043F64F
:104E40004000C4F20200016841F080510160006836
:104E500000F0805002900298FFE7FFE700200190E9
:104E600047F20000C4F20000016841F440410160D3
:104E7000006800F4404001900198FFE7012008908D
:104E80004FF48030099002200E904FF480010F9172
:104E900006211091B421119112900420139008A8BA
:104EA000FDF728FF002803D0FFE7FBF7BDFEFFE773
:104EB000FDF7C6FC002803D0FFE7FBF7B5FEFFE7D0
:104EC0000F20039002200490002005904FF4A05082
:104ED00006904FF48050079003A80521FDF710FDC0
:104EE000002803D0FFE7FBF79FFEFFE714B080BD6B
:104EF0004EF68850CEF20000016841F47001016066
:104F00007047000080B540F2CC50C2F20000FEF7BE
:104F100037FB80BD83B00290019102980068009039
:104F200002980021C4F20101884225D0FFE70298CF
:104F3000B0F1804F20D0FFE7029840F20041C4F268
:104F40000001884218D0FFE7029840F60001C4F241
:104F50000001884210D0FFE7029840F60041C4F2F9
:104F60000001884208D0FFE7029840F20041C4F2F5
:104F7000010188420AD1FFE7009820F070000090FC
:104F800001984068009908430090FFE702980021CB
:104F9000C4F20101884255D0FFE70298B0F1804F7A
:104FA00050D0FFE7029840F20041C4F2000188426D
:104FB00048D0FFE7029840F60001C4F200018842A1
:104FC00040D0FFE7029840F60041C4F20001884259
:104FD00038D0FFE7029840F20041C4F20101884254
:104FE00030D0FFE7029844F20001C4F20101884288
:104FF00028D0FFE7029844F20041C4F20101884240
:1050000020D0FFE7029844F60001C4F20101884273
:1050100018D0FFE7029841F60001C4F2000188426F
:1050200010D0FFE7029841F60041C4F20001884227
:1050300008D0FFE7029842F20001C4F20001884262
:105040000AD1FFE7009820F4407000900198C068F2
:10505000009908430090FFE7009820F08000019934
:10506000496908430090019880680299C8620198D4
:1050700000680299886202980021C4F20101884206
:1050800008D0FFE7029840F20041C4F201018842D3
:1050900005D1FFE70198006902990863FFE70298CC
:1050A000016841F00401016002980121416100980A
:1050B0000299086003B0704785B00490039104988A
:1050C000006A01900498016A21F0010101620498CC
:1050D00040680090049880690290029820F0700067
:1050E0000290029820F00300029003980068029951
:1050F00008430290019820F0020001900398806814
:1051000001990843019004980021C4F201018842EA
:1051100008D0FFE7049840F20041C4F20101884240
:105120000ED1FFE7019820F0080001900398C068B5
:10513000019908430190019820F004000190FFE7D5
:1051400004980021C4F20101884208D0FFE70498C6
:1051500040F20041C4F20101884213D1FFE70098F8
:1051600020F480700090009820F400700090039864
:1051700040690099084300900398806900990843AA
:105180000090FFE7009804994860029804998861AC
:10519000039840680499486301980499086205B02F
:1051A0007047000085B0049003910498006A019054
:1051B0000498016A21F0100101620498406800908F
:1051C000049880690290029820F4E04002900298CE
:1051D00020F44070029003980068029941EA002090
:1051E0000290019820F020000190039880680199B6
:1051F00041EA0010019004980021C4F201018842A4
:1052000008D0FFE7049840F20041C4F2010188424F
:105210000FD1FFE7019820F0800001900398C0684B
:10522000019941EA00100190019820F0400001909E
:10523000FFE704980021C4F20101884208D0FFE78B
:10524000049840F20041C4F20101884215D1FFE701
:10525000009820F480600090009820F40060009096
:1052600003984069009941EA8000009003988069A2
:10527000009941EA80000090FFE700980499486097
:10528000029804998861039840680499886301989A
:105290000499086205B0704785B0049003910498A2
:1052A000006A01900498016A21F4807101620498F7
:1052B000406800900498C0690290029820F0700045
:1052C0000290029820F0030002900398006802996F
:1052D00008430290019820F40070019003988068C0
:1052E000019941EA0020019004980021C4F20101D3
:1052F000884208D0FFE7049840F20041C4F201015F
:1053000088420FD1FFE7019820F4006001900398D4
:10531000C068019941EA00200190019820F4806062
:105320000190FFE704980021C4F20101884208D0EF
:10533000FFE7049840F20041C4F20101884215D110
:10534000FFE7009820F480500090009820F400506F
:10535000009003984069009941EA0010009003987A
:105360008069009941EA00100090FFE700980499D5
:10537000486002980499C861039840680499C8631A
:1053800001980499086205B07047000085B0049048
:1053900003910498006A01900498016A21F48051F5
:1053A00001620498406800900498C06902900298D5
:1053B00020F4E0400290029820F44070029003989C
:1053C0000068029941EA00200290019820F4005000
:1053D000019003988068019941EA00300190049897
:1053E0000021C4F20101884208D0FFE7049840F28E
:1053F0000041C4F2010188420BD1FFE7009820F47C
:105400008040009003984069009941EA8010009024
:10541000FFE700980499486002980499C8610398CE
:1054200040680499086401980499086205B07047BF
:1054300080B582B001900198806B009000980021A7
:10544000C1850098FEF7B6FB02B080BD80B584B080
:105450000390002002900398806B019001980068EF
:105460004069C0B2C0090290019890F8410021281B
:105470000BD1FFE70298002807D0FFE70198002131
:10548000C184019800F05EF9FFE701980068406967
:10549000C0F380100290019890F8420022280BD1AE
:1054A000FFE70298002807D0FFE701980021C18597
:1054B000019800F0E9F8FFE70198416C41F0100114
:1054C00041640198FEF776FB04B080BD80B586B0DC
:1054D00005900598806B0490059800680068C005E9
:1054E00000285AD4FFE704980021C185FFE7FFE7B1
:1054F0000498006850E8030F20F480700390FFE7E1
:1055000003980499096841E80302002AF0D1FFE7F3
:10551000FFE7FFE7FFE70498006850E8050F20F079
:1055200001000290FFE702980499096841E805022A
:10553000002AF0D1FFE7FFE7FFE7FFE704980068E4
:1055400050E8050F20F040000190FFE70198049912
:10555000096841E80502002AF0D1FFE7FFE7049857
:10556000202180F842100498006B012814D1FFE735
:10557000FFE7FFE70498006850E8030F20F01000F1
:105580000090FFE700980499096841E80302002AA7
:10559000F0D1FFE7FFE7FFE7FFE704980021416351
:1055A0000498006B012805D1FFE70498818DFEF770
:1055B000C1FA03E00498FEF7EBFFFFE706B080BDF9
:1055C00080B582B001900198806B00900098012115
:1055D00041630098006B012806D1FFE70098818D98
:1055E0004908FEF7A7FA03E00098FEF7D5FFFFE7AA
:1055F00002B080BD80B584B003900398806B0290A8
:10560000039800680068C00500282AD4FFE70298C4
:105610000021C184FFE7FFE70298006850E8050F0A
:1056200020F080000190FFE701980299096841E8A5
:105630000502002AF0D1FFE7FFE7FFE7FFE7029846
:10564000006850E8030F40F040000090FFE700982A
:105650000299096841E80302002AF0D1FFE7FFE759
:1056600003E00298FFF7FEF8FFE704B080BD0000FA
:1056700080B582B001900198806B00900098FFF790
:10568000F5F802B080BD000084B00390FFE7FFE7AB
:105690000398006850E8030F20F490700290FFE731
:1056A00002980399096841E80302002AF0D1FFE754
:1056B000FFE7FFE7FFE70398006850E8050F20F0D9
:1056C00001000190FFE701980399096841E805028C
:1056D000002AF0D1FFE7FFE70398006B012814D1FF
:1056E000FFE7FFE7FFE70398006850E8030F20F0AB
:1056F00010000090FFE700980399096841E8030251
:10570000002AF0D1FFE7FFE7FFE70398202180F8A8
:10571000421003980021016304B0704780B582B045
:10572000019001980068C16821F04001C1600198B2
:10573000202180F841100198FFF794F8002002B072
:1057400080BD000082B00190FFE7FFE7019800688C
:1057500050E8030F20F0C0000090FFE70098019987
:10576000096841E80302002AF0D1FFE7FFE701984A
:10577000202180F8411002B07047000080B586B04B
:105780000490002003900290049890F84200222890
:1057900040F0A380FFE704988068B0F5805F14D1E3
:1057A000FFE70498006900280FD1FFE70498806A9A
:1057B00002900498006840686FF35F2002990880A7
:1057C0000498816A0231816225E00498806A03901E
:1057D00004988068B0F5805F0AD0FFE7049880687D
:1057E00000280BD1FFE704980069002806D1FFE7E5
:1057F0000498006840680399087007E004980068FE
:10580000406800F07F0003990870FFE70498816A00
:1058100001318162FFE70498C18D0139C185080417
:10582000002856D1FFE704980068C16821F02001E4
:10583000C16004980068C16821F48071C160049857
:105840000068416921F0010141610498202180F83C
:1058500042100498002141630498006B012830D164
:10586000FFE7049800210163FFE7FFE70498006861
:1058700050E8030F20F010000190FFE70198049911
:10588000096841E80302002AF0D1FFE7FFE7049826
:1058900000680068C00600280ED5FFE7FFE700207B
:1058A00000900498006800680090049800684068C0
:1058B00000900098FFE7FFE70498818DFEF73AF922
:1058C00003E00498FEF764FEFFE700208DF8170060
:1058D00007E000208DF8170003E002208DF8170084
:1058E000FFE79DF8170006B080BD000080B588B0C6
:1058F000079007980068006920F4405007990A68EB
:10590000C968084310610798816802694369C069E2
:10591000114319430843069007980068C06849F28C
:105920000C6188430699084307990968C86007987D
:105930000068406920F4407007990A688969084343
:1059400050610798006841F20001C4F201018842E9
:1059500009D0FFE70798006841F20041C4F2010155
:10596000884204D1FFE7FDF73FF9059003E0FDF71A
:1059700029F90590FFE70798C069B0F5004F2FD1CE
:10598000FFE705981921A0FB0101079A13685268E7
:105990004FEA420CD20F04926246DDF810C0039326
:1059A0006346FAF781FC48F21F51C5F2EB11A0FBE8
:1059B00001235B094FEA031C4FF0640E03FB1E003A
:1059C000322303EBC000A0FB0101F82303EA5113CB
:1059D0000CEB4303C1F342111944039B99602EE081
:1059E00005981921A0FB0101079A136852684FEA34
:1059F000820C920F02926246DDF808C00193634662
:105A0000FAF752FC48F21F51C5F2EB11A0FB01233B
:105A10005B094FF0640C03FB1C004FF0320C0CEBE5
:105A20000010A0FB01014FF0F00C0CEA511C0CEB34
:105A30000313C1F343111944019B9960FFE708B0B8
:105A400080BD000080B58AB0134608900791ADF87C
:105A50001A20079808998862BDF81A000899888565
:105A60000898002141640898222280F84220089872
:105A7000C06B45F2CD42C0F60002C2630898C06B0D
:105A800045F2C152C0F6000202640898C06B45F2AC
:105A90004D42C0F60002C2640898C06B016507A8B9
:105AA000059008980168C06B0431059A1268BDF82A
:105AB0001AC000936346FCF75DFB00280BD0FFE79C
:105AC0000898102141640898202180F84210012094
:105AD0008DF827004FE0FFE7002004900898006849
